{
  "url": "https://api.github.com/repos/bitcoin/bitcoin/pulls/17773",
  "id": 354845597,
  "node_id": "MDExOlB1bGxSZXF1ZXN0MzU0ODQ1NTk3",
  "html_url": "https://github.com/bitcoin/bitcoin/pull/17773",
  "diff_url": "https://github.com/bitcoin/bitcoin/pull/17773.diff",
  "patch_url": "https://github.com/bitcoin/bitcoin/pull/17773.patch",
  "issue_url": "https://api.github.com/repos/bitcoin/bitcoin/issues/17773",
  "number": 17773,
  "state": "closed",
  "locked": false,
  "title": "test: Properly deserialize witness transactions in wallet_basic test",
  "user": {
    "login": "MarcoFalke",
    "id": 6399679,
    "node_id": "MDQ6VXNlcjYzOTk2Nzk=",
    "avatar_url": "https://avatars.githubusercontent.com/u/6399679?v=4",
    "gravatar_id": "",
    "url": "https://api.github.com/users/MarcoFalke",
    "html_url": "https://github.com/MarcoFalke",
    "followers_url": "https://api.github.com/users/MarcoFalke/followers",
    "following_url": "https://api.github.com/users/MarcoFalke/following{/other_user}",
    "gists_url": "https://api.github.com/users/MarcoFalke/gists{/gist_id}",
    "starred_url": "https://api.github.com/users/MarcoFalke/starred{/owner}{/repo}",
    "subscriptions_url": "https://api.github.com/users/MarcoFalke/subscriptions",
    "organizations_url": "https://api.github.com/users/MarcoFalke/orgs",
    "repos_url": "https://api.github.com/users/MarcoFalke/repos",
    "events_url": "https://api.github.com/users/MarcoFalke/events{/privacy}",
    "received_events_url": "https://api.github.com/users/MarcoFalke/received_events",
    "type": "User",
    "site_admin": false
  },
  "body": "Wallet transactions have inputs, thus they are witness transactions. So properly set `iswitness` to true.\r\n\r\nThis fixes the errors of the following kind:\r\n\r\n```\r\n test  2019-12-18T14:46:14.457000Z TestFramework (ERROR): Assertion failed \r\n                                   Traceback (most recent call last):\r\n                                     File \"/bitcoin/test/functional/test_framework/test_framework.py\", line 112, in main\r\n                                       self.run_test()\r\n                                     File \"/bitcoin/test/functional/wallet_basic.py\", line 207, in run_test\r\n                                       node_0_bal = self.check_fee_amount(self.nodes[0].getbalance(), Decimal('20'), fee_per_byte, self.get_vsize(self.nodes[2].gettransaction(txid)['hex']))\r\n                                     File \"/bitcoin/test/functional/wallet_basic.py\", line 48, in check_fee_amount\r\n                                       assert_fee_amount(fee, tx_size, fee_per_byte * 1000)\r\n                                     File \"/bitcoin/test/functional/test_framework/util.py\", line 39, in assert_fee_amount\r\n                                       raise AssertionError(\"Fee of %s BTC too low! (Should be %s BTC)\" % (str(fee), str(target_fee)))\r\n                                   AssertionError: Fee of 0.00011000 BTC too low! (Should be 0.00019100 BTC)\r\n```\r\n\r\nFull log (with color):\r\n\r\n[log.colored.txt](https://github.com/bitcoin/bitcoin/files/3980749/log.colored.txt)\r\n\r\nRelevant excerpt:\r\n\r\n```\r\n node2 2019-12-18T14:46:13.427834Z [httpworker.0] [default wallet] Fee Calculation: Fee:11000 Bytes:110 Needed:11000 Tgt:0 (requested 0) Reason:\"PayTxFee set\" Decay 0.00000: Estimation: (-1 - -1) -nan% 0.0/(0.0 0 mem 0.0 out) Fail: (-1 - -1) -nan% 0.0/(0.0 0 mem 0.0 out) \r\n node2 2019-12-18T14:46:13.427867Z [httpworker.0] [default wallet] CommitTransaction: \r\n                                   CTransaction(hash=cc2d0a7862, ver=2, vin.size=1, vout.size=1, nLockTime=205)\r\n                                       CTxIn(COutPoint(fe5a0c8830, 1), scriptSig=, nSequence=4294967294)\r\n                                       CScriptWitness(30440220072d2f1dd001dc40aadec3c3926360033cc036250d603d957556562569d59958022000ca2f88a49c29075d534c1ed89ee678b6b4e9b5e28a897f37e3b5df6d114dff01, 03a7059f3416e80411ec1e02ecbf3e665fceda21d23a4e84e1559f2ed628da95c2)\r\n                                       CTxOut(nValue=9.99989000, scriptPubKey=001475dafea69b760d8e2024cf0bcd)\r\n node2 2019-12-18T14:46:13.427954Z [httpworker.0] [default wallet] AddToWallet cc2d0a786278c12034c0d286d1876bfaf10dd19253d8efecaa6621c81baa0030  new \r\n```\r\n\r\nRaw transaction:\r\n\r\n```\r\n# ./src/bitcoin-cli -datadir=/tmp/test_runner_\\342\\202\\277_\\360\\237\\217\\203_20191218_144609/wallet_basic_126/node2/ gettransaction cc2d0a786278c12034c0d286d1876bfaf10dd19253d8efecaa6621c81baa0030\r\n{\r\n  \"amount\": -9.99989000,\r\n  \"fee\": -0.00011000,\r\n  \"confirmations\": 1,\r\n  \"blockhash\": \"16f12dd1747458d905ec81af9dc1d576e011f0e4bc426f1b4559e77dd9d922df\",\r\n  \"blockheight\": 206,\r\n  \"blockindex\": 1,\r\n  \"blocktime\": 1576680407,\r\n  \"txid\": \"cc2d0a786278c12034c0d286d1876bfaf10dd19253d8efecaa6621c81baa0030\",\r\n  \"walletconflicts\": [\r\n  ],\r\n  \"time\": 1576680373,\r\n  \"timereceived\": 1576680373,\r\n  \"bip125-replaceable\": \"no\",\r\n  \"details\": [\r\n    {\r\n      \"address\": \"bcrt1qwhd0af5mwcxcugpyeu9umng4zewfwug47fhhe7\",\r\n      \"category\": \"send\",\r\n      \"amount\": -9.99989000,\r\n      \"vout\": 0,\r\n      \"fee\": -0.00011000,\r\n      \"abandoned\": false\r\n    }\r\n  ],\r\n  \"hex\": \"02000000000101dbada06e823a7eaca640c0248aaa7c145f790299acddfc49f6fdbf30880c5afe0100000000feffffff01089f9a3b0000000016001475dafea69b760d8e2024cf0bcdcd15165c977115024730440220072d2f1dd001dc40aadec3c3926360033cc036250d603d957556562569d59958022000ca2f88a49c29075d534c1ed89ee678b6b4e9b5e28a897f37e3b5df6d114dff012103a7059f3416e80411ec1e02ecbf3e665fceda21d23a4e84e1559f2ed628da95c2cd000000\"\r\n}\r\n\r\n# ./src/bitcoin-cli -datadir=/tmp/test_runner_\\342\\202\\277_\\360\\237\\217\\203_20191218_144609/wallet_basic_126/node2/ decoderawtransaction 02000000000101dbada06e823a7eaca640c0248aaa7c145f790299acddfc49f6fdbf30880c5afe0100000000feffffff01089f9a3b0000000016001475dafea69b760d8e2024cf0bcdcd15165c977115024730440220072d2f1dd001dc40aadec3c3926360033cc036250d603d957556562569d59958022000ca2f88a49c29075d534c1ed89ee678b6b4e9b5e28a897f37e3b5df6d114dff012103a7059f3416e80411ec1e02ecbf3e665fceda21d23a4e84e1559f2ed628da95c2cd000000\r\n{\r\n  \"txid\": \"658ee42c79f167c7ad21071773ca008d71e73cd42a36d6da0b66651b6d203a00\",\r\n  \"hash\": \"658ee42c79f167c7ad21071773ca008d71e73cd42a36d6da0b66651b6d203a00\",\r\n  \"version\": 2,\r\n  \"size\": 191,\r\n  \"vsize\": 191,\r\n  \"weight\": 764,\r\n  \"locktime\": 205,\r\n  \"vin\": [\r\n  ],\r\n  \"vout\": [\r\n    {\r\n      \"value\": 90957258090.81899777,\r\n      \"n\": 0,\r\n      \"scriptPubKey\": {\r\n        \"asm\": \"OP_RIPEMD160 c0248aaa7c145f790299acddfc49f6fdbf30880c5afe0100000000feffffff01089f9a3b0000000016001475dafea69b760d8e2024cf0bcdcd15165c97711502 30440220072d2f1dd001dc40aadec3c3926360033cc036250d603d957556562569d59958022000ca2f88a49c29075d534c1ed89ee678b6b4e9b5e28a897f37e3b5df6d114dff01 03a7059f3416e80411ec1e02ecbf3e665fceda21d23a4e84e1559f2ed628da95c2\",\r\n        \"hex\": \"a640c0248aaa7c145f790299acddfc49f6fdbf30880c5afe0100000000feffffff01089f9a3b0000000016001475dafea69b760d8e2024cf0bcdcd15165c977115024730440220072d2f1dd001dc40aadec3c3926360033cc036250d603d957556562569d59958022000ca2f88a49c29075d534c1ed89ee678b6b4e9b5e28a897f37e3b5df6d114dff012103a7059f3416e80411ec1e02ecbf3e665fceda21d23a4e84e1559f2ed628da95c2\",\r\n        \"type\": \"nonstandard\"\r\n      }\r\n    }\r\n  ]\r\n}\r\n\r\n# ./src/bitcoin-cli -datadir=/tmp/test_runner_\\342\\202\\277_\\360\\237\\217\\203_20191218_144609/wallet_basic_126/node2/ decoderawtransaction 02000000000101dbada06e823a7eaca640c0248aaa7c145f790299acddfc49f6fdbf30880c5afe0100000000feffffff01089f9a3b0000000016001475dafea69b760d8e2024cf0bcdcd15165c977115024730440220072d2f1dd001dc40aadec3c3926360033cc036250d603d957556562569d59958022000ca2f88a49c29075d534c1ed89ee678b6b4e9b5e28a897f37e3b5df6d114dff012103a7059f3416e80411ec1e02ecbf3e665fceda21d23a4e84e1559f2ed628da95c2cd000000 | grep vsize\r\n  \"vsize\": 191,\r\n\r\n\r\n# ./src/bitcoin-cli -datadir=/tmp/test_runner_\\342\\202\\277_\\360\\237\\217\\203_20191218_144609/wallet_basic_126/node2/ decoderawtransaction 02000000000101dbada06e823a7eaca640c0248aaa7c145f790299acddfc49f6fdbf30880c5afe0100000000feffffff01089f9a3b0000000016001475dafea69b760d8e2024cf0bcdcd15165c977115024730440220072d2f1dd001dc40aadec3c3926360033cc036250d603d957556562569d59958022000ca2f88a49c29075d534c1ed89ee678b6b4e9b5e28a897f37e3b5df6d114dff012103a7059f3416e80411ec1e02ecbf3e665fceda21d23a4e84e1559f2ed628da95c2cd000000 true | grep vsize\r\n  \"vsize\": 110,\r\n\r\n\r\n\r\n```\r\n",
  "created_at": "2019-12-18T22:21:36Z",
  "updated_at": "2019-12-19T16:54:47Z",
  "closed_at": "2019-12-19T16:54:43Z",
  "merged_at": null,
  "merge_commit_sha": "f38b2763b527cf2c352bb100a6ca9e453c1f06c8",
  "assignee": null,
  "assignees": [],
  "requested_reviewers": [],
  "requested_teams": [],
  "labels": [
    {
      "id": 62963516,
      "node_id": "MDU6TGFiZWw2Mjk2MzUxNg==",
      "url": "https://api.github.com/repos/bitcoin/bitcoin/labels/Tests",
      "name": "Tests",
      "color": "d4c5f9",
      "default": false,
      "description": null
    }
  ],
  "milestone": null,
  "draft": false,
  "commits_url": "https://api.github.com/repos/bitcoin/bitcoin/pulls/17773/commits",
  "review_comments_url": "https://api.github.com/repos/bitcoin/bitcoin/pulls/17773/comments",
  "review_comment_url": "https://api.github.com/repos/bitcoin/bitcoin/pulls/comments{/number}",
  "comments_url": "https://api.github.com/repos/bitcoin/bitcoin/issues/17773/comments",
  "statuses_url": "https://api.github.com/repos/bitcoin/bitcoin/statuses/fa4c6bf6be5e918b46896fdb353c9d18f0edc635",
  "head": {
    "label": "MarcoFalke:1912-testWalletVsizeWitness",
    "ref": "1912-testWalletVsizeWitness",
    "sha": "fa4c6bf6be5e918b46896fdb353c9d18f0edc635",
    "user": {
      "login": "MarcoFalke",
      "id": 6399679,
      "node_id": "MDQ6VXNlcjYzOTk2Nzk=",
      "avatar_url": "https://avatars.githubusercontent.com/u/6399679?v=4",
      "gravatar_id": "",
      "url": "https://api.github.com/users/MarcoFalke",
      "html_url": "https://github.com/MarcoFalke",
      "followers_url": "https://api.github.com/users/MarcoFalke/followers",
      "following_url": "https://api.github.com/users/MarcoFalke/following{/other_user}",
      "gists_url": "https://api.github.com/users/MarcoFalke/gists{/gist_id}",
      "starred_url": "https://api.github.com/users/MarcoFalke/starred{/owner}{/repo}",
      "subscriptions_url": "https://api.github.com/users/MarcoFalke/subscriptions",
      "organizations_url": "https://api.github.com/users/MarcoFalke/orgs",
      "repos_url": "https://api.github.com/users/MarcoFalke/repos",
      "events_url": "https://api.github.com/users/MarcoFalke/events{/privacy}",
      "received_events_url": "https://api.github.com/users/MarcoFalke/received_events",
      "type": "User",
      "site_admin": false
    },
    "repo": {
      "id": 40046254,
      "node_id": "MDEwOlJlcG9zaXRvcnk0MDA0NjI1NA==",
      "name": "bitcoin-core",
      "full_name": "MarcoFalke/bitcoin-core",
      "private": false,
      "owner": {
        "login": "MarcoFalke",
        "id": 6399679,
        "node_id": "MDQ6VXNlcjYzOTk2Nzk=",
        "avatar_url": "https://avatars.githubusercontent.com/u/6399679?v=4",
        "gravatar_id": "",
        "url": "https://api.github.com/users/MarcoFalke",
        "html_url": "https://github.com/MarcoFalke",
        "followers_url": "https://api.github.com/users/MarcoFalke/followers",
        "following_url": "https://api.github.com/users/MarcoFalke/following{/other_user}",
        "gists_url": "https://api.github.com/users/MarcoFalke/gists{/gist_id}",
        "starred_url": "https://api.github.com/users/MarcoFalke/starred{/owner}{/repo}",
        "subscriptions_url": "https://api.github.com/users/MarcoFalke/subscriptions",
        "organizations_url": "https://api.github.com/users/MarcoFalke/orgs",
        "repos_url": "https://api.github.com/users/MarcoFalke/repos",
        "events_url": "https://api.github.com/users/MarcoFalke/events{/privacy}",
        "received_events_url": "https://api.github.com/users/MarcoFalke/received_events",
        "type": "User",
        "site_admin": false
      },
      "html_url": "https://github.com/MarcoFalke/bitcoin-core",
      "description": "Development fork of Bitcoin Core",
      "fork": true,
      "url": "https://api.github.com/repos/MarcoFalke/bitcoin-core",
      "forks_url": "https://api.github.com/repos/MarcoFalke/bitcoin-core/forks",
      "keys_url": "https://api.github.com/repos/MarcoFalke/bitcoin-core/keys{/key_id}",
      "collaborators_url": "https://api.github.com/repos/MarcoFalke/bitcoin-core/collaborators{/collaborator}",
      "teams_url": "https://api.github.com/repos/MarcoFalke/bitcoin-core/teams",
      "hooks_url": "https://api.github.com/repos/MarcoFalke/bitcoin-core/hooks",
      "issue_events_url": "https://api.github.com/repos/MarcoFalke/bitcoin-core/issues/events{/number}",
      "events_url": "https://api.github.com/repos/MarcoFalke/bitcoin-core/events",
      "assignees_url": "https://api.github.com/repos/MarcoFalke/bitcoin-core/assignees{/user}",
      "branches_url": "https://api.github.com/repos/MarcoFalke/bitcoin-core/branches{/branch}",
      "tags_url": "https://api.github.com/repos/MarcoFalke/bitcoin-core/tags",
      "blobs_url": "https://api.github.com/repos/MarcoFalke/bitcoin-core/git/blobs{/sha}",
      "git_tags_url": "https://api.github.com/repos/MarcoFalke/bitcoin-core/git/tags{/sha}",
      "git_refs_url": "https://api.github.com/repos/MarcoFalke/bitcoin-core/git/refs{/sha}",
      "trees_url": "https://api.github.com/repos/MarcoFalke/bitcoin-core/git/trees{/sha}",
      "statuses_url": "https://api.github.com/repos/MarcoFalke/bitcoin-core/statuses/{sha}",
      "languages_url": "https://api.github.com/repos/MarcoFalke/bitcoin-core/languages",
      "stargazers_url": "https://api.github.com/repos/MarcoFalke/bitcoin-core/stargazers",
      "contributors_url": "https://api.github.com/repos/MarcoFalke/bitcoin-core/contributors",
      "subscribers_url": "https://api.github.com/repos/MarcoFalke/bitcoin-core/subscribers",
      "subscription_url": "https://api.github.com/repos/MarcoFalke/bitcoin-core/subscription",
      "commits_url": "https://api.github.com/repos/MarcoFalke/bitcoin-core/commits{/sha}",
      "git_commits_url": "https://api.github.com/repos/MarcoFalke/bitcoin-core/git/commits{/sha}",
      "comments_url": "https://api.github.com/repos/MarcoFalke/bitcoin-core/comments{/number}",
      "issue_comment_url": "https://api.github.com/repos/MarcoFalke/bitcoin-core/issues/comments{/number}",
      "contents_url": "https://api.github.com/repos/MarcoFalke/bitcoin-core/contents/{+path}",
      "compare_url": "https://api.github.com/repos/MarcoFalke/bitcoin-core/compare/{base}...{head}",
      "merges_url": "https://api.github.com/repos/MarcoFalke/bitcoin-core/merges",
      "archive_url": "https://api.github.com/repos/MarcoFalke/bitcoin-core/{archive_format}{/ref}",
      "downloads_url": "https://api.github.com/repos/MarcoFalke/bitcoin-core/downloads",
      "issues_url": "https://api.github.com/repos/MarcoFalke/bitcoin-core/issues{/number}",
      "pulls_url": "https://api.github.com/repos/MarcoFalke/bitcoin-core/pulls{/number}",
      "milestones_url": "https://api.github.com/repos/MarcoFalke/bitcoin-core/milestones{/number}",
      "notifications_url": "https://api.github.com/repos/MarcoFalke/bitcoin-core/notifications{?since,all,participating}",
      "labels_url": "https://api.github.com/repos/MarcoFalke/bitcoin-core/labels{/name}",
      "releases_url": "https://api.github.com/repos/MarcoFalke/bitcoin-core/releases{/id}",
      "deployments_url": "https://api.github.com/repos/MarcoFalke/bitcoin-core/deployments",
      "created_at": "2015-08-01T12:42:47Z",
      "updated_at": "2021-12-01T16:59:28Z",
      "pushed_at": "2021-12-01T16:59:19Z",
      "git_url": "git://github.com/MarcoFalke/bitcoin-core.git",
      "ssh_url": "git@github.com:MarcoFalke/bitcoin-core.git",
      "clone_url": "https://github.com/MarcoFalke/bitcoin-core.git",
      "svn_url": "https://github.com/MarcoFalke/bitcoin-core",
      "homepage": "",
      "size": 168101,
      "stargazers_count": 13,
      "watchers_count": 13,
      "language": "C++",
      "has_issues": true,
      "has_projects": true,
      "has_downloads": false,
      "has_wiki": false,
      "has_pages": false,
      "forks_count": 10,
      "mirror_url": null,
      "archived": false,
      "disabled": false,
      "open_issues_count": 20,
      "license": {
        "key": "mit",
        "name": "MIT License",
        "spdx_id": "MIT",
        "url": "https://api.github.com/licenses/mit",
        "node_id": "MDc6TGljZW5zZTEz"
      },
      "allow_forking": true,
      "is_template": false,
      "topics": [],
      "visibility": "public",
      "forks": 10,
      "open_issues": 20,
      "watchers": 13,
      "default_branch": "master"
    }
  },
  "base": {
    "label": "bitcoin:master",
    "ref": "master",
    "sha": "6fef85bfa3cd7f76e83b8b57f9e4acd63eb664ec",
    "user": {
      "login": "bitcoin",
      "id": 528860,
      "node_id": "MDEyOk9yZ2FuaXphdGlvbjUyODg2MA==",
      "avatar_url": "https://avatars.githubusercontent.com/u/528860?v=4",
      "gravatar_id": "",
      "url": "https://api.github.com/users/bitcoin",
      "html_url": "https://github.com/bitcoin",
      "followers_url": "https://api.github.com/users/bitcoin/followers",
      "following_url": "https://api.github.com/users/bitcoin/following{/other_user}",
      "gists_url": "https://api.github.com/users/bitcoin/gists{/gist_id}",
      "starred_url": "https://api.github.com/users/bitcoin/starred{/owner}{/repo}",
      "subscriptions_url": "https://api.github.com/users/bitcoin/subscriptions",
      "organizations_url": "https://api.github.com/users/bitcoin/orgs",
      "repos_url": "https://api.github.com/users/bitcoin/repos",
      "events_url": "https://api.github.com/users/bitcoin/events{/privacy}",
      "received_events_url": "https://api.github.com/users/bitcoin/received_events",
      "type": "Organization",
      "site_admin": false
    },
    "repo": {
      "id": 1181927,
      "node_id": "MDEwOlJlcG9zaXRvcnkxMTgxOTI3",
      "name": "bitcoin",
      "full_name": "bitcoin/bitcoin",
      "private": false,
      "owner": {
        "login": "bitcoin",
        "id": 528860,
        "node_id": "MDEyOk9yZ2FuaXphdGlvbjUyODg2MA==",
        "avatar_url": "https://avatars.githubusercontent.com/u/528860?v=4",
        "gravatar_id": "",
        "url": "https://api.github.com/users/bitcoin",
        "html_url": "https://github.com/bitcoin",
        "followers_url": "https://api.github.com/users/bitcoin/followers",
        "following_url": "https://api.github.com/users/bitcoin/following{/other_user}",
        "gists_url": "https://api.github.com/users/bitcoin/gists{/gist_id}",
        "starred_url": "https://api.github.com/users/bitcoin/starred{/owner}{/repo}",
        "subscriptions_url": "https://api.github.com/users/bitcoin/subscriptions",
        "organizations_url": "https://api.github.com/users/bitcoin/orgs",
        "repos_url": "https://api.github.com/users/bitcoin/repos",
        "events_url": "https://api.github.com/users/bitcoin/events{/privacy}",
        "received_events_url": "https://api.github.com/users/bitcoin/received_events",
        "type": "Organization",
        "site_admin": false
      },
      "html_url": "https://github.com/bitcoin/bitcoin",
      "description": "Bitcoin Core integration/staging tree",
      "fork": false,
      "url": "https://api.github.com/repos/bitcoin/bitcoin",
      "forks_url": "https://api.github.com/repos/bitcoin/bitcoin/forks",
      "keys_url": "https://api.github.com/repos/bitcoin/bitcoin/keys{/key_id}",
      "collaborators_url": "https://api.github.com/repos/bitcoin/bitcoin/collaborators{/collaborator}",
      "teams_url": "https://api.github.com/repos/bitcoin/bitcoin/teams",
      "hooks_url": "https://api.github.com/repos/bitcoin/bitcoin/hooks",
      "issue_events_url": "https://api.github.com/repos/bitcoin/bitcoin/issues/events{/number}",
      "events_url": "https://api.github.com/repos/bitcoin/bitcoin/events",
      "assignees_url": "https://api.github.com/repos/bitcoin/bitcoin/assignees{/user}",
      "branches_url": "https://api.github.com/repos/bitcoin/bitcoin/branches{/branch}",
      "tags_url": "https://api.github.com/repos/bitcoin/bitcoin/tags",
      "blobs_url": "https://api.github.com/repos/bitcoin/bitcoin/git/blobs{/sha}",
      "git_tags_url": "https://api.github.com/repos/bitcoin/bitcoin/git/tags{/sha}",
      "git_refs_url": "https://api.github.com/repos/bitcoin/bitcoin/git/refs{/sha}",
      "trees_url": "https://api.github.com/repos/bitcoin/bitcoin/git/trees{/sha}",
      "statuses_url": "https://api.github.com/repos/bitcoin/bitcoin/statuses/{sha}",
      "languages_url": "https://api.github.com/repos/bitcoin/bitcoin/languages",
      "stargazers_url": "https://api.github.com/repos/bitcoin/bitcoin/stargazers",
      "contributors_url": "https://api.github.com/repos/bitcoin/bitcoin/contributors",
      "subscribers_url": "https://api.github.com/repos/bitcoin/bitcoin/subscribers",
      "subscription_url": "https://api.github.com/repos/bitcoin/bitcoin/subscription",
      "commits_url": "https://api.github.com/repos/bitcoin/bitcoin/commits{/sha}",
      "git_commits_url": "https://api.github.com/repos/bitcoin/bitcoin/git/commits{/sha}",
      "comments_url": "https://api.github.com/repos/bitcoin/bitcoin/comments{/number}",
      "issue_comment_url": "https://api.github.com/repos/bitcoin/bitcoin/issues/comments{/number}",
      "contents_url": "https://api.github.com/repos/bitcoin/bitcoin/contents/{+path}",
      "compare_url": "https://api.github.com/repos/bitcoin/bitcoin/compare/{base}...{head}",
      "merges_url": "https://api.github.com/repos/bitcoin/bitcoin/merges",
      "archive_url": "https://api.github.com/repos/bitcoin/bitcoin/{archive_format}{/ref}",
      "downloads_url": "https://api.github.com/repos/bitcoin/bitcoin/downloads",
      "issues_url": "https://api.github.com/repos/bitcoin/bitcoin/issues{/number}",
      "pulls_url": "https://api.github.com/repos/bitcoin/bitcoin/pulls{/number}",
      "milestones_url": "https://api.github.com/repos/bitcoin/bitcoin/milestones{/number}",
      "notifications_url": "https://api.github.com/repos/bitcoin/bitcoin/notifications{?since,all,participating}",
      "labels_url": "https://api.github.com/repos/bitcoin/bitcoin/labels{/name}",
      "releases_url": "https://api.github.com/repos/bitcoin/bitcoin/releases{/id}",
      "deployments_url": "https://api.github.com/repos/bitcoin/bitcoin/deployments",
      "created_at": "2010-12-19T15:16:43Z",
      "updated_at": "2021-12-02T06:25:25Z",
      "pushed_at": "2021-12-02T06:16:37Z",
      "git_url": "git://github.com/bitcoin/bitcoin.git",
      "ssh_url": "git@github.com:bitcoin/bitcoin.git",
      "clone_url": "https://github.com/bitcoin/bitcoin.git",
      "svn_url": "https://github.com/bitcoin/bitcoin",
      "homepage": "https://bitcoincore.org/en/download",
      "size": 188182,
      "stargazers_count": 59735,
      "watchers_count": 59735,
      "language": "C++",
      "has_issues": true,
      "has_projects": true,
      "has_downloads": false,
      "has_wiki": false,
      "has_pages": false,
      "forks_count": 30710,
      "mirror_url": null,
      "archived": false,
      "disabled": false,
      "open_issues_count": 1023,
      "license": {
        "key": "mit",
        "name": "MIT License",
        "spdx_id": "MIT",
        "url": "https://api.github.com/licenses/mit",
        "node_id": "MDc6TGljZW5zZTEz"
      },
      "allow_forking": true,
      "is_template": false,
      "topics": [
        "bitcoin",
        "c-plus-plus",
        "cryptocurrency",
        "cryptography",
        "p2p"
      ],
      "visibility": "public",
      "forks": 30710,
      "open_issues": 1023,
      "watchers": 59735,
      "default_branch": "master"
    }
  },
  "_links": {
    "self": {
      "href": "https://api.github.com/repos/bitcoin/bitcoin/pulls/17773"
    },
    "html": {
      "href": "https://github.com/bitcoin/bitcoin/pull/17773"
    },
    "issue": {
      "href": "https://api.github.com/repos/bitcoin/bitcoin/issues/17773"
    },
    "comments": {
      "href": "https://api.github.com/repos/bitcoin/bitcoin/issues/17773/comments"
    },
    "review_comments": {
      "href": "https://api.github.com/repos/bitcoin/bitcoin/pulls/17773/comments"
    },
    "review_comment": {
      "href": "https://api.github.com/repos/bitcoin/bitcoin/pulls/comments{/number}"
    },
    "commits": {
      "href": "https://api.github.com/repos/bitcoin/bitcoin/pulls/17773/commits"
    },
    "statuses": {
      "href": "https://api.github.com/repos/bitcoin/bitcoin/statuses/fa4c6bf6be5e918b46896fdb353c9d18f0edc635"
    }
  },
  "author_association": "MEMBER",
  "auto_merge": null,
  "active_lock_reason": null,
  "merged": false,
  "mergeable": null,
  "rebaseable": null,
  "mergeable_state": "unknown",
  "merged_by": null,
  "comments": 2,
  "review_comments": 0,
  "maintainer_can_modify": false,
  "commits": 1,
  "additions": 1,
  "deletions": 1,
  "changed_files": 1
}