[
  {
    "sha": "1fcebc16c59e52921f4bf1e9a0073364ef13a08a",
    "node_id": "MDY6Q29tbWl0MTE4MTkyNzoxZmNlYmMxNmM1OWU1MjkyMWY0YmYxZTlhMDA3MzM2NGVmMTNhMDhh",
    "commit": {
      "author": {
        "name": "Matt Corallo",
        "email": "git@bluematt.me",
        "date": "2012-09-06T01:46:48Z"
      },
      "committer": {
        "name": "Matt Corallo",
        "email": "git@bluematt.me",
        "date": "2012-09-06T02:33:59Z"
      },
      "message": "check tx.CheckTransaction for data-driven tx tests.\n\n(and change so that only one case has to fail to make a tx_invalid\ntest correct)",
      "tree": {
        "sha": "85230e7a9dc4f81e0792fc30d1cfa6150c72def1",
        "url": "https://api.github.com/repos/bitcoin/bitcoin/git/trees/85230e7a9dc4f81e0792fc30d1cfa6150c72def1"
      },
      "url": "https://api.github.com/repos/bitcoin/bitcoin/git/commits/1fcebc16c59e52921f4bf1e9a0073364ef13a08a",
      "comment_count": 0,
      "verification": {
        "verified": false,
        "reason": "unsigned",
        "signature": null,
        "payload": null
      }
    },
    "url": "https://api.github.com/repos/bitcoin/bitcoin/commits/1fcebc16c59e52921f4bf1e9a0073364ef13a08a",
    "html_url": "https://github.com/bitcoin/bitcoin/commit/1fcebc16c59e52921f4bf1e9a0073364ef13a08a",
    "comments_url": "https://api.github.com/repos/bitcoin/bitcoin/commits/1fcebc16c59e52921f4bf1e9a0073364ef13a08a/comments",
    "author": {
      "login": "TheBlueMatt",
      "id": 649246,
      "node_id": "MDQ6VXNlcjY0OTI0Ng==",
      "avatar_url": "https://avatars.githubusercontent.com/u/649246?v=4",
      "gravatar_id": "",
      "url": "https://api.github.com/users/TheBlueMatt",
      "html_url": "https://github.com/TheBlueMatt",
      "followers_url": "https://api.github.com/users/TheBlueMatt/followers",
      "following_url": "https://api.github.com/users/TheBlueMatt/following{/other_user}",
      "gists_url": "https://api.github.com/users/TheBlueMatt/gists{/gist_id}",
      "starred_url": "https://api.github.com/users/TheBlueMatt/starred{/owner}{/repo}",
      "subscriptions_url": "https://api.github.com/users/TheBlueMatt/subscriptions",
      "organizations_url": "https://api.github.com/users/TheBlueMatt/orgs",
      "repos_url": "https://api.github.com/users/TheBlueMatt/repos",
      "events_url": "https://api.github.com/users/TheBlueMatt/events{/privacy}",
      "received_events_url": "https://api.github.com/users/TheBlueMatt/received_events",
      "type": "User",
      "site_admin": false
    },
    "committer": {
      "login": "TheBlueMatt",
      "id": 649246,
      "node_id": "MDQ6VXNlcjY0OTI0Ng==",
      "avatar_url": "https://avatars.githubusercontent.com/u/649246?v=4",
      "gravatar_id": "",
      "url": "https://api.github.com/users/TheBlueMatt",
      "html_url": "https://github.com/TheBlueMatt",
      "followers_url": "https://api.github.com/users/TheBlueMatt/followers",
      "following_url": "https://api.github.com/users/TheBlueMatt/following{/other_user}",
      "gists_url": "https://api.github.com/users/TheBlueMatt/gists{/gist_id}",
      "starred_url": "https://api.github.com/users/TheBlueMatt/starred{/owner}{/repo}",
      "subscriptions_url": "https://api.github.com/users/TheBlueMatt/subscriptions",
      "organizations_url": "https://api.github.com/users/TheBlueMatt/orgs",
      "repos_url": "https://api.github.com/users/TheBlueMatt/repos",
      "events_url": "https://api.github.com/users/TheBlueMatt/events{/privacy}",
      "received_events_url": "https://api.github.com/users/TheBlueMatt/received_events",
      "type": "User",
      "site_admin": false
    },
    "parents": [
      {
        "sha": "8788221761afc2c2990da746d9a6c444ff869684",
        "url": "https://api.github.com/repos/bitcoin/bitcoin/commits/8788221761afc2c2990da746d9a6c444ff869684",
        "html_url": "https://github.com/bitcoin/bitcoin/commit/8788221761afc2c2990da746d9a6c444ff869684"
      }
    ],
    "stats": {
      "total": 10,
      "additions": 8,
      "deletions": 2
    },
    "files": [
      {
        "sha": "c230458866658def7b5b1013cfccb98c8f06a029",
        "filename": "src/test/transaction_tests.cpp",
        "status": "modified",
        "additions": 8,
        "deletions": 2,
        "changes": 10,
        "blob_url": "https://github.com/bitcoin/bitcoin/blob/1fcebc16c59e52921f4bf1e9a0073364ef13a08a/src/test/transaction_tests.cpp",
        "raw_url": "https://github.com/bitcoin/bitcoin/raw/1fcebc16c59e52921f4bf1e9a0073364ef13a08a/src/test/transaction_tests.cpp",
        "contents_url": "https://api.github.com/repos/bitcoin/bitcoin/contents/src/test/transaction_tests.cpp?ref=1fcebc16c59e52921f4bf1e9a0073364ef13a08a",
        "patch": "@@ -66,6 +66,8 @@ BOOST_AUTO_TEST_CASE(tx_valid)\n             CTransaction tx;\n             stream >> tx;\n \n+                BOOST_CHECK_MESSAGE(tx.CheckTransaction(), strTest);\n+\n             for (unsigned int i = 0; i < tx.vin.size(); i++)\n             {\n                 if (!mapprevOutScriptPubKeys.count(tx.vin[i].prevout))\n@@ -131,16 +133,20 @@ BOOST_AUTO_TEST_CASE(tx_invalid)\n             CTransaction tx;\n             stream >> tx;\n \n-            for (unsigned int i = 0; i < tx.vin.size(); i++)\n+            fValid = tx.CheckTransaction();\n+\n+            for (unsigned int i = 0; i < tx.vin.size() && fValid; i++)\n             {\n                 if (!mapprevOutScriptPubKeys.count(tx.vin[i].prevout))\n                 {\n                     BOOST_ERROR(\"Bad test: \" << strTest);\n                     break;\n                 }\n \n-                BOOST_CHECK_MESSAGE(!VerifyScript(tx.vin[i].scriptSig, mapprevOutScriptPubKeys[tx.vin[i].prevout], tx, i, test[2].get_bool(), 0), strTest);\n+                fValid = VerifyScript(tx.vin[i].scriptSig, mapprevOutScriptPubKeys[tx.vin[i].prevout], tx, i, test[2].get_bool(), 0);\n             }\n+\n+            BOOST_CHECK_MESSAGE(!fValid, strTest);\n         }\n     }\n }"
      }
    ]
  },
  {
    "sha": "65786afb0571eb197526f8ada8c8372fbc09b451",
    "node_id": "MDY6Q29tbWl0MTE4MTkyNzo2NTc4NmFmYjA1NzFlYjE5NzUyNmY4YWRhOGM4MzcyZmJjMDliNDUx",
    "commit": {
      "author": {
        "name": "Matt Corallo",
        "email": "git@bluematt.me",
        "date": "2012-09-06T02:33:43Z"
      },
      "committer": {
        "name": "Matt Corallo",
        "email": "git@bluematt.me",
        "date": "2012-09-06T02:33:59Z"
      },
      "message": "Add various tests for CTransaction::CheckTransaction()",
      "tree": {
        "sha": "374ded7d885267e8386d7b52da9d337b866c7fce",
        "url": "https://api.github.com/repos/bitcoin/bitcoin/git/trees/374ded7d885267e8386d7b52da9d337b866c7fce"
      },
      "url": "https://api.github.com/repos/bitcoin/bitcoin/git/commits/65786afb0571eb197526f8ada8c8372fbc09b451",
      "comment_count": 0,
      "verification": {
        "verified": false,
        "reason": "unsigned",
        "signature": null,
        "payload": null
      }
    },
    "url": "https://api.github.com/repos/bitcoin/bitcoin/commits/65786afb0571eb197526f8ada8c8372fbc09b451",
    "html_url": "https://github.com/bitcoin/bitcoin/commit/65786afb0571eb197526f8ada8c8372fbc09b451",
    "comments_url": "https://api.github.com/repos/bitcoin/bitcoin/commits/65786afb0571eb197526f8ada8c8372fbc09b451/comments",
    "author": {
      "login": "TheBlueMatt",
      "id": 649246,
      "node_id": "MDQ6VXNlcjY0OTI0Ng==",
      "avatar_url": "https://avatars.githubusercontent.com/u/649246?v=4",
      "gravatar_id": "",
      "url": "https://api.github.com/users/TheBlueMatt",
      "html_url": "https://github.com/TheBlueMatt",
      "followers_url": "https://api.github.com/users/TheBlueMatt/followers",
      "following_url": "https://api.github.com/users/TheBlueMatt/following{/other_user}",
      "gists_url": "https://api.github.com/users/TheBlueMatt/gists{/gist_id}",
      "starred_url": "https://api.github.com/users/TheBlueMatt/starred{/owner}{/repo}",
      "subscriptions_url": "https://api.github.com/users/TheBlueMatt/subscriptions",
      "organizations_url": "https://api.github.com/users/TheBlueMatt/orgs",
      "repos_url": "https://api.github.com/users/TheBlueMatt/repos",
      "events_url": "https://api.github.com/users/TheBlueMatt/events{/privacy}",
      "received_events_url": "https://api.github.com/users/TheBlueMatt/received_events",
      "type": "User",
      "site_admin": false
    },
    "committer": {
      "login": "TheBlueMatt",
      "id": 649246,
      "node_id": "MDQ6VXNlcjY0OTI0Ng==",
      "avatar_url": "https://avatars.githubusercontent.com/u/649246?v=4",
      "gravatar_id": "",
      "url": "https://api.github.com/users/TheBlueMatt",
      "html_url": "https://github.com/TheBlueMatt",
      "followers_url": "https://api.github.com/users/TheBlueMatt/followers",
      "following_url": "https://api.github.com/users/TheBlueMatt/following{/other_user}",
      "gists_url": "https://api.github.com/users/TheBlueMatt/gists{/gist_id}",
      "starred_url": "https://api.github.com/users/TheBlueMatt/starred{/owner}{/repo}",
      "subscriptions_url": "https://api.github.com/users/TheBlueMatt/subscriptions",
      "organizations_url": "https://api.github.com/users/TheBlueMatt/orgs",
      "repos_url": "https://api.github.com/users/TheBlueMatt/repos",
      "events_url": "https://api.github.com/users/TheBlueMatt/events{/privacy}",
      "received_events_url": "https://api.github.com/users/TheBlueMatt/received_events",
      "type": "User",
      "site_admin": false
    },
    "parents": [
      {
        "sha": "1fcebc16c59e52921f4bf1e9a0073364ef13a08a",
        "url": "https://api.github.com/repos/bitcoin/bitcoin/commits/1fcebc16c59e52921f4bf1e9a0073364ef13a08a",
        "html_url": "https://github.com/bitcoin/bitcoin/commit/1fcebc16c59e52921f4bf1e9a0073364ef13a08a"
      }
    ],
    "stats": {
      "total": 61,
      "additions": 59,
      "deletions": 2
    },
    "files": [
      {
        "sha": "f01ee06cfa14dd6c8b2aca80d4453e94b1ec0bbb",
        "filename": "src/test/data/tx_invalid.json",
        "status": "modified",
        "additions": 39,
        "deletions": 1,
        "changes": 40,
        "blob_url": "https://github.com/bitcoin/bitcoin/blob/65786afb0571eb197526f8ada8c8372fbc09b451/src/test/data/tx_invalid.json",
        "raw_url": "https://github.com/bitcoin/bitcoin/raw/65786afb0571eb197526f8ada8c8372fbc09b451/src/test/data/tx_invalid.json",
        "contents_url": "https://api.github.com/repos/bitcoin/bitcoin/contents/src/test/data/tx_invalid.json?ref=65786afb0571eb197526f8ada8c8372fbc09b451",
        "patch": "@@ -21,6 +21,44 @@\n \n [\"An invalid P2SH Transaction\"],\n [[[\"0000000000000000000000000000000000000000000000000000000000000100\", 0, \"HASH160 0x14 0x7a052c840ba73af26755de42cf01cc9e0a49fef0 EQUAL\"]],\n-\"010000000100010000000000000000000000000000000000000000000000000000000000000000000009085768617420697320ffffffff010000000000000000015100000000\", true]\n+\"010000000100010000000000000000000000000000000000000000000000000000000000000000000009085768617420697320ffffffff010000000000000000015100000000\", true],\n \n+[\"Tests for CTransaction::CheckTransaction()\"],\n+[\"No inputs\"],\n+[[[\"0000000000000000000000000000000000000000000000000000000000000100\", 0, \"HASH160 0x14 0x7a052c840ba73af26755de42cf01cc9e0a49fef0 EQUAL\"]],\n+\"0100000000010000000000000000015100000000\", true],\n+\n+[\"No outputs\"],\n+[[[\"0000000000000000000000000000000000000000000000000000000000000100\", 0, \"HASH160 0x14 0x05ab9e14d983742513f0f451e105ffb4198d1dd4 EQUAL\"]],\n+\"01000000010001000000000000000000000000000000000000000000000000000000000000000000006d483045022100f16703104aab4e4088317c862daec83440242411b039d14280e03dd33b487ab802201318a7be236672c5c56083eb7a5a195bc57a40af7923ff8545016cd3b571e2a601232103c40e5d339df3f30bf753e7e04450ae4ef76c9e45587d1d993bdc4cd06f0651c7acffffffff0000000000\", true],\n+\n+[\"Negative output\"],\n+[[[\"0000000000000000000000000000000000000000000000000000000000000100\", 0, \"HASH160 0x14 0xae609aca8061d77c5e111f6bb62501a6bbe2bfdb EQUAL\"]],\n+\"01000000010001000000000000000000000000000000000000000000000000000000000000000000006d4830450220063222cbb128731fc09de0d7323746539166544d6c1df84d867ccea84bcc8903022100bf568e8552844de664cd41648a031554327aa8844af34b4f27397c65b92c04de0123210243ec37dee0e2e053a9c976f43147e79bc7d9dc606ea51010af1ac80db6b069e1acffffffff01ffffffffffffffff015100000000\", true],\n+\n+[\"MAX_MONEY + 1 output\"],\n+[[[\"0000000000000000000000000000000000000000000000000000000000000100\", 0, \"HASH160 0x14 0x32afac281462b822adbec5094b8d4d337dd5bd6a EQUAL\"]],\n+\"01000000010001000000000000000000000000000000000000000000000000000000000000000000006e493046022100e1eadba00d9296c743cb6ecc703fd9ddc9b3cd12906176a226ae4c18d6b00796022100a71aef7d2874deff681ba6080f1b278bac7bb99c61b08a85f4311970ffe7f63f012321030c0588dc44d92bdcbf8e72093466766fdc265ead8db64517b0c542275b70fffbacffffffff010140075af0750700015100000000\", true],\n+\n+[\"MAX_MONEY output + 1 output\"],\n+[[[\"0000000000000000000000000000000000000000000000000000000000000100\", 0, \"HASH160 0x14 0xb558cbf4930954aa6a344363a15668d7477ae716 EQUAL\"]],\n+\"01000000010001000000000000000000000000000000000000000000000000000000000000000000006d483045022027deccc14aa6668e78a8c9da3484fbcd4f9dcc9bb7d1b85146314b21b9ae4d86022100d0b43dece8cfb07348de0ca8bc5b86276fa88f7f2138381128b7c36ab2e42264012321029bb13463ddd5d2cc05da6e84e37536cb9525703cfd8f43afdb414988987a92f6acffffffff020040075af075070001510001000000000000015100000000\", true],\n+\n+[\"Duplicate inputs\"],\n+[[[\"0000000000000000000000000000000000000000000000000000000000000100\", 0, \"HASH160 0x14 0x236d0639db62b0773fd8ac34dc85ae19e9aba80a EQUAL\"]],\n+\"01000000020001000000000000000000000000000000000000000000000000000000000000000000006c47304402204bb1197053d0d7799bf1b30cd503c44b58d6240cccbdc85b6fe76d087980208f02204beeed78200178ffc6c74237bb74b3f276bbb4098b5605d814304fe128bf1431012321039e8815e15952a7c3fada1905f8cf55419837133bd7756c0ef14fc8dfe50c0deaacffffffff0001000000000000000000000000000000000000000000000000000000000000000000006c47304402202306489afef52a6f62e90bf750bbcdf40c06f5c6b138286e6b6b86176bb9341802200dba98486ea68380f47ebb19a7df173b99e6bc9c681d6ccf3bde31465d1f16b3012321039e8815e15952a7c3fada1905f8cf55419837133bd7756c0ef14fc8dfe50c0deaacffffffff010000000000000000015100000000\", true],\n+\n+[\"Coinbase of size 1\"],\n+[\"Note the input is just required to make the tester happy\"],\n+[[[\"0000000000000000000000000000000000000000000000000000000000000000\", -1, \"1\"]],\n+\"01000000010000000000000000000000000000000000000000000000000000000000000000ffffffff0151ffffffff010000000000000000015100000000\", true],\n+\n+[\"Coinbase of size 101\"],\n+[\"Note the input is just required to make the tester happy\"],\n+[[[\"0000000000000000000000000000000000000000000000000000000000000000\", -1, \"1\"]],\n+\"01000000010000000000000000000000000000000000000000000000000000000000000000ffffffff655151515151515151515151515151515151515151515151515151515151515151515151515151515151515151515151515151515151515151515151515151515151515151515151515151515151515151515151515151515151515151515151515151515151ffffffff010000000000000000015100000000\", true],\n+\n+[\"Null txin\"],\n+[[[\"0000000000000000000000000000000000000000000000000000000000000000\", -1, \"HASH160 0x14 0x02dae7dbbda56097959cba59b1989dd3e47937bf EQUAL\"]],\n+\"01000000010000000000000000000000000000000000000000000000000000000000000000ffffffff6e49304602210086f39e028e46dafa8e1e3be63906465f4cf038fbe5ed6403dc3e74ae876e6431022100c4625c675cfc5c7e3a0e0d7eaec92ac24da20c73a88eb40d09253e51ac6def5201232103a183ddc41e84753aca47723c965d1b5c8b0e2b537963518355e6dd6cf8415e50acffffffff010000000000000000015100000000\", true]\n ]"
      },
      {
        "sha": "5528ae72431806a3863ea144ac7b9cba46d50065",
        "filename": "src/test/data/tx_valid.json",
        "status": "modified",
        "additions": 20,
        "deletions": 1,
        "changes": 21,
        "blob_url": "https://github.com/bitcoin/bitcoin/blob/65786afb0571eb197526f8ada8c8372fbc09b451/src/test/data/tx_valid.json",
        "raw_url": "https://github.com/bitcoin/bitcoin/raw/65786afb0571eb197526f8ada8c8372fbc09b451/src/test/data/tx_valid.json",
        "contents_url": "https://api.github.com/repos/bitcoin/bitcoin/contents/src/test/data/tx_valid.json?ref=65786afb0571eb197526f8ada8c8372fbc09b451",
        "patch": "@@ -48,5 +48,24 @@\n \n [\"A valid P2SH Transaction using the standard transaction type put forth in BIP 16\"],\n [[[\"0000000000000000000000000000000000000000000000000000000000000100\", 0, \"HASH160 0x14 0x8febbed40483661de6958d957412f82deed8e2f7 EQUAL\"]],\n-\"01000000010001000000000000000000000000000000000000000000000000000000000000000000006e493046022100c66c9cdf4c43609586d15424c54707156e316d88b0a1534c9e6b0d4f311406310221009c0fe51dbc9c4ab7cc25d3fdbeccf6679fe6827f08edf2b4a9f16ee3eb0e438a0123210338e8034509af564c62644c07691942e0c056752008a173c89f60ab2a88ac2ebfacffffffff010000000000000000015100000000\", true]\n+\"01000000010001000000000000000000000000000000000000000000000000000000000000000000006e493046022100c66c9cdf4c43609586d15424c54707156e316d88b0a1534c9e6b0d4f311406310221009c0fe51dbc9c4ab7cc25d3fdbeccf6679fe6827f08edf2b4a9f16ee3eb0e438a0123210338e8034509af564c62644c07691942e0c056752008a173c89f60ab2a88ac2ebfacffffffff010000000000000000015100000000\", true],\n+\n+[\"Tests for CTransaction::CheckTransaction()\"],\n+[\"MAX_MONEY output\"],\n+[[[\"0000000000000000000000000000000000000000000000000000000000000100\", 0, \"HASH160 0x14 0x32afac281462b822adbec5094b8d4d337dd5bd6a EQUAL\"]],\n+\"01000000010001000000000000000000000000000000000000000000000000000000000000000000006e493046022100e1eadba00d9296c743cb6ecc703fd9ddc9b3cd12906176a226ae4c18d6b00796022100a71aef7d2874deff681ba6080f1b278bac7bb99c61b08a85f4311970ffe7f63f012321030c0588dc44d92bdcbf8e72093466766fdc265ead8db64517b0c542275b70fffbacffffffff010040075af0750700015100000000\", true],\n+\n+[\"MAX_MONEY output + 0 output\"],\n+[[[\"0000000000000000000000000000000000000000000000000000000000000100\", 0, \"HASH160 0x14 0xb558cbf4930954aa6a344363a15668d7477ae716 EQUAL\"]],\n+\"01000000010001000000000000000000000000000000000000000000000000000000000000000000006d483045022027deccc14aa6668e78a8c9da3484fbcd4f9dcc9bb7d1b85146314b21b9ae4d86022100d0b43dece8cfb07348de0ca8bc5b86276fa88f7f2138381128b7c36ab2e42264012321029bb13463ddd5d2cc05da6e84e37536cb9525703cfd8f43afdb414988987a92f6acffffffff020040075af075070001510000000000000000015100000000\", true],\n+\n+[\"Coinbase of size 2\"],\n+[\"Note the input is just required to make the tester happy\"],\n+[[[\"0000000000000000000000000000000000000000000000000000000000000000\", -1, \"1\"]],\n+\"01000000010000000000000000000000000000000000000000000000000000000000000000ffffffff025151ffffffff010000000000000000015100000000\", true],\n+\n+[\"Coinbase of size 100\"],\n+[\"Note the input is just required to make the tester happy\"],\n+[[[\"0000000000000000000000000000000000000000000000000000000000000000\", -1, \"1\"]],\n+\"01000000010000000000000000000000000000000000000000000000000000000000000000ffffffff6451515151515151515151515151515151515151515151515151515151515151515151515151515151515151515151515151515151515151515151515151515151515151515151515151515151515151515151515151515151515151515151515151515151ffffffff010000000000000000015100000000\", true]\n ]"
      }
    ]
  }
]